{
  "contractName": "dapp1",
  "abi": [
    {
      "inputs": [],
      "name": "count",
      "outputs": [
        {
          "internalType": "uint256",
          "name": "",
          "type": "uint256"
        }
      ],
      "stateMutability": "view",
      "type": "function"
    },
    {
      "inputs": [],
      "name": "increamentCount",
      "outputs": [],
      "stateMutability": "nonpayable",
      "type": "function"
    }
  ],
  "bytecode": "0x60806040526000805534801561001457600080fd5b50610161806100246000396000f3fe608060405234801561001057600080fd5b50600436106100365760003560e01c806306661abd1461003b5780637c85b8f914610059575b600080fd5b610043610063565b6040516100509190610099565b60405180910390f35b610061610069565b005b60005481565b6000808154610077906100e3565b91905081905550565b6000819050919050565b61009381610080565b82525050565b60006020820190506100ae600083018461008a565b92915050565b7f4e487b7100000000000000000000000000000000000000000000000000000000600052601160045260246000fd5b60006100ee82610080565b91507fffffffffffffffffffffffffffffffffffffffffffffffffffffffffffffffff82036101205761011f6100b4565b5b60018201905091905056fea2646970667358221220f8b07e8ba382e19d595c602e400f2479cb47ed0715de236bb9466cc1186a97c264736f6c63430008110033",
  "immutableReferences": {},
  "source": "// SPDX-License-Identifier: MIT\npragma solidity^0.8.0;\n\ncontract dapp1 {\n  // timestamp, wallet address of sx and rx, funds\n  uint public count = 0; // state variable\n\n  function increamentCount() public {\n    ++count;\n  }\n}\n",
  "sourcePath": "C:\\Users\\Aum Bhatt\\desktop\\prgs\\blockchain\\dapp1\\contracts\\dapp1.sol",
  "compiler": {
    "name": "solc",
    "version": "0.8.17+commit.8df45f5f.Emscripten.clang"
  },
  "schemaVersion": "3.4.10",
  "updatedAt": "2022-10-23T10:42:22.032Z",
  "devdoc": {
    "kind": "dev",
    "methods": {},
    "version": 1
  },
  "userdoc": {
    "kind": "user",
    "methods": {},
    "version": 1
  }
}