{
  "contractName": "dapp1",
  "abi": [
    {
      "inputs": [],
      "name": "count",
      "outputs": [
        {
          "internalType": "uint256",
          "name": "",
          "type": "uint256"
        }
      ],
      "stateMutability": "view",
      "type": "function",
      "constant": true
    },
    {
      "inputs": [],
      "name": "increamentCount",
      "outputs": [],
      "stateMutability": "nonpayable",
      "type": "function"
    }
  ],
  "bytecode": "0x60806040526000805534801561001457600080fd5b50610162806100246000396000f3fe608060405234801561001057600080fd5b50600436106100365760003560e01c806306661abd1461003b5780637c85b8f914610059575b600080fd5b610043610063565b604051610050919061008f565b60405180910390f35b610061610069565b005b60005481565b6000808154610077906100b4565b91905081905550565b610089816100aa565b82525050565b60006020820190506100a46000830184610080565b92915050565b6000819050919050565b60006100bf826100aa565b91507fffffffffffffffffffffffffffffffffffffffffffffffffffffffffffffffff8214156100f2576100f16100fd565b5b600182019050919050565b7f4e487b7100000000000000000000000000000000000000000000000000000000600052601160045260246000fdfea2646970667358221220bc3ecb5ef8c9ebd1665d70b3b0a2f9e5af8d9c7452de421fbe456f599967970364736f6c63430008000033",
  "immutableReferences": {},
  "source": "// SPDX-License-Identifier: MIT\npragma solidity^0.8.0;\n\ncontract dapp1 {\n  // timestamp, wallet address of sx and rx, funds\n  uint public count = 0; // state variable\n\n  function increamentCount() public {\n    ++count;\n  }\n}\n",
  "sourcePath": "C:\\Users\\Aum Bhatt\\desktop\\prgs\\blockchain\\dapp1\\contracts\\dapp1.sol",
  "compiler": {
    "name": "solc",
    "version": "0.8.0+commit.c7dfd78e.Emscripten.clang"
  },
  "schemaVersion": "3.4.10",
  "updatedAt": "2022-10-23T11:36:46.238Z",
  "networkType": "ethereum",
  "devdoc": {
    "kind": "dev",
    "methods": {},
    "version": 1
  },
  "userdoc": {
    "kind": "user",
    "methods": {},
    "version": 1
  }
}